:1000000001308A00662900000030831685008600D2
:100010000F3087008312A0000030831688008312FF
:100020008A110A1273293B308400831300080319D4
:1000300027280530F800F701F70B1C28F80B1B28C0
:100040002E30F700F70B22282528800B19280800EE
:10005000FF30AD000130AE000230AF000430B00020
:100060000830B100B2013208033C031CC6282E3010
:100070003207840083130008B300831685018312BE
:100080003308850020142008831687008312071C7C
:100090006228B208031D4F280730AD006128320BDB
:1000A00054280830AD0061283208023C031D5B284B
:1000B0000930AD0061283208033C031D61282F3050
:1000C000AD00C428A0142008831687008312871C63
:1000D0008228B208031D6F280430AD008128320B3E
:1000E00074280530AD0081283208023C031D7B28AE
:1000F0000630AD0081283208033C031D812878308A
:10010000AD00C42820152008831687008312071D20
:10011000A228B208031D8F280130AD00A128320BA0
:1001200094280230AD00A1283208023C031D9B2810
:100130000330AD00A1283208033C031DA1282D3057
:10014000AD00C428A0152008831687008312871DE0
:10015000C128B208031DAF284F30AD00C028320BB4
:10016000B328AD01C0283208023C031DBA283D3037
:10017000AD00C0283208033C031DC0282B30AD0061
:10018000C4281430BB001320B20A33282D0FCC280A
:100190000530BB001320D3280230B300C830BB00A9
:1001A0001320B30BCE282D08F80008003C08F801F6
:1001B0003B020318DE283B08F700EA28F701083065
:1001C000BD00BB0DF70D3C0877020318F700F80DD2
:1001D000BD0BE12808003F30AE000630AF005B30B9
:1001E000B0004F30B1006630B2006D30B3007D30EA
:1001F000B4000730B5007F30B6006F30B7002D086F
:10020000BB000A30BC00D6207808B8002D08BB001F
:100210000A30BC00D6207708B900BA013A08C73CBA
:10022000031C402983160910831209142E30390744
:10023000840083130008BB008316860183123B08E9
:1002400086000130BB0013208316091083120910A9
:1002500083168910831289142E3038078400831383
:100260000008BB008316860183123B08860001301C
:10027000BB0013208316891083128910BA0A0E2935
:100280000800F701F8012D0803102E18F707F70CE6
:10029000F80CAE18F707F70CF80C2E19F707F70C47
:1002A000F80CAE19F707F70CF80C2E1AF707F70C35
:1002B000F80CAE1AF707F70CF80C2E1BF707F70C23
:1002C000F80CAE1BF707F70CF80C080003081F39F1
:1002D0008300FF30A00083161F149F141F159F1169
:1002E000831383120428831686018312860100304B
:1002F000A0008316870183128701A601A701AA0126
:10030000AB018316081083120814AC012C08013CC1
:10031000031CA12928207808A300230F90299B29DA
:10032000AC08031D96292308A1009A292C0B9A29B1
:100330002308A200AC0A2C0BA0292108AD00EB2059
:1003400086290A30AD002108AE0041212208780735
:10035000A80028207808A3002808AD00EB20230877
:100360002B3C0319BB2923082D3C0319BB29230867
:100370002F3C031DBE292308A400D029230FC12927
:10038000CF2983168810831288146430BB00132091
:1003900083168810831288106430BB001320A929AB
:1003A00023082B3C031DDB29A0132008831687009C
:1003B00083128717F02923082D3C031DE6292013FB
:1003C00020088316870083120717F02923082F3C83
:1003D000031DF029A01220088316870083128716B8
:1003E000AC012C08013C031C0C2A28207808A3002F
:1003F000230FFB29062AAC08031D012A2308A100AC
:10040000052A2C0B052A2308A200AC0A2C0B0B2A68
:100410002108AD00EB20F1290A30AD002108AE0023
:10042000412122087807A90028207808A30029087C
:10043000AD00EB2023083D3C0319302A230F212A6D
:100440002F2A83168810831288146430BB0013206F
:1004500083168810831288106430BB001320142A7E
:1004600024082B3C031D382A29082807A5004B2AFD
:1004700024082D3C031D402A29082802A5004B2AE8
:1004800024082F3C031D4B2A2808BB002908BC0068
:10049000D6207808A5008316881083128814AC0132
:1004A0002C08093C031C5C2A2508AD00EB20023017
:1004B000BB001320AC0A502A8316881083128810C0
:1004C000A0122008831687008312871220132008A9
:1004D0008316870083120713A01320088316870052
:0804E0008312871381296300D8
:02400E00323F3F
:00000001FF
;PIC16F877
;CRC=BD7A  CREATED="03-Oca-22 23:34"
